{
  "contractName": "Incentive",
  "abi": [
    {
      "anonymous": false,
      "inputs": [
        {
          "indexed": true,
          "internalType": "address",
          "name": "client",
          "type": "address"
        },
        {
          "indexed": false,
          "internalType": "uint256",
          "name": "round",
          "type": "uint256"
        },
        {
          "indexed": false,
          "internalType": "uint256",
          "name": "reward",
          "type": "uint256"
        },
        {
          "indexed": false,
          "internalType": "uint256",
          "name": "shapley",
          "type": "uint256"
        }
      ],
      "name": "RoundInfoSubmitted",
      "type": "event"
    },
    {
      "inputs": [
        {
          "internalType": "address",
          "name": "",
          "type": "address"
        },
        {
          "internalType": "uint256",
          "name": "",
          "type": "uint256"
        }
      ],
      "name": "records",
      "outputs": [
        {
          "internalType": "uint256",
          "name": "round",
          "type": "uint256"
        },
        {
          "internalType": "uint256",
          "name": "reward",
          "type": "uint256"
        },
        {
          "internalType": "uint256",
          "name": "shapley",
          "type": "uint256"
        }
      ],
      "stateMutability": "view",
      "type": "function",
      "constant": true
    },
    {
      "inputs": [
        {
          "internalType": "uint256",
          "name": "round",
          "type": "uint256"
        },
        {
          "internalType": "uint256",
          "name": "reward",
          "type": "uint256"
        },
        {
          "internalType": "uint256",
          "name": "shapley",
          "type": "uint256"
        }
      ],
      "name": "submitRoundInfo",
      "outputs": [],
      "stateMutability": "nonpayable",
      "type": "function"
    },
    {
      "inputs": [
        {
          "internalType": "address",
          "name": "client",
          "type": "address"
        }
      ],
      "name": "getClientRecordCount",
      "outputs": [
        {
          "internalType": "uint256",
          "name": "",
          "type": "uint256"
        }
      ],
      "stateMutability": "view",
      "type": "function",
      "constant": true
    },
    {
      "inputs": [
        {
          "internalType": "address",
          "name": "client",
          "type": "address"
        }
      ],
      "name": "getLatestRecord",
      "outputs": [
        {
          "internalType": "uint256",
          "name": "",
          "type": "uint256"
        },
        {
          "internalType": "uint256",
          "name": "",
          "type": "uint256"
        },
        {
          "internalType": "uint256",
          "name": "",
          "type": "uint256"
        }
      ],
      "stateMutability": "view",
      "type": "function",
      "constant": true
    }
  ],
  "bytecode": "0x608060405234801561001057600080fd5b50610347806100206000396000f3fe608060405234801561001057600080fd5b506004361061004c5760003560e01c806320ad021c146100515780632f63bd6a1461006657806382a6c0ac14610099578063e2d9a538146100ac575b600080fd5b61006461005f366004610240565b6100e3565b005b610079610074366004610288565b61017a565b604080519384526020840192909252908201526060015b60405180910390f35b6100796100a73660046102aa565b6101fe565b6100d56100ba366004610288565b6001600160a01b031660009081526020819052604090205490565b604051908152602001610090565b336000818152602081815260408083208151606080820184528982528185018981528285018981528454600180820187559589529787902093516003909802909301968755519286019290925551600290940193909355805187815291820186905281018490527fc2324230403456a18d8330f90ad91f3b16667f6fe83c91bcabe2f8232f5515c1910160405180910390a2505050565b6001600160a01b03811660009081526020819052604081208054829182918291906101a7906001906102d4565b815481106101b7576101b76102fb565b600091825260209182902060408051606081018252600393909302909101805480845260018201549484018590526002909101549290910182905297919650945092505050565b6000602052816000526040600020818154811061021a57600080fd5b600091825260209091206003909102018054600182015460029092015490935090915083565b60008060006060848603121561025557600080fd5b505081359360208301359350604090920135919050565b80356001600160a01b038116811461028357600080fd5b919050565b60006020828403121561029a57600080fd5b6102a38261026c565b9392505050565b600080604083850312156102bd57600080fd5b6102c68361026c565b946020939093013593505050565b818103818111156102f557634e487b7160e01b600052601160045260246000fd5b92915050565b634e487b7160e01b600052603260045260246000fdfea2646970667358221220b7067c177e32addd9d8d7b67485342cb1ca60e284cf6f14df4f3a99fed9e763964736f6c63430008140033",
  "immutableReferences": {},
  "source": "\n// SPDX-License-Identifier: MIT\npragma solidity ^0.8.0;\n\ncontract Incentive {\n    struct RoundInfo {\n        uint256 round;\n        uint256 reward;\n        uint256 shapley;\n    }\n\n    mapping(address => RoundInfo[]) public records;\n\n    // Define the event for logging\n    event RoundInfoSubmitted(address indexed client, uint256 round, uint256 reward, uint256 shapley);\n\n    function submitRoundInfo(uint256 round, uint256 reward, uint256 shapley) public {\n        records[msg.sender].push(RoundInfo(round, reward, shapley));\n        \n        // Emit the event to log the submission\n        emit RoundInfoSubmitted(msg.sender, round, reward, shapley);\n    }\n\n    function getClientRecordCount(address client) public view returns (uint) {\n        return records[client].length;\n    }\n\n    function getLatestRecord(address client) public view returns (uint, uint, uint) {\n        RoundInfo memory r = records[client][records[client].length - 1];\n        return (r.round, r.reward, r.shapley);\n    }\n}\n   ",
  "sourcePath": "/home/riyansh/thesis_contract/contracts/Incentive.sol",
  "compiler": {
    "name": "solc",
    "version": "0.8.20+commit.a1b79de6.Emscripten.clang"
  },
  "schemaVersion": "3.4.16",
  "updatedAt": "2025-05-01T05:07:16.142Z",
  "networkType": "ethereum",
  "devdoc": {
    "kind": "dev",
    "methods": {},
    "version": 1
  },
  "userdoc": {
    "kind": "user",
    "methods": {},
    "version": 1
  }
}